:03000000020030CB
:03000B0002030DE0
:030023000200B226
:100030007581501202FE12008812013812015274AA
:10004000801201147400120126D2AF12018912022B
:10005000556033B40509E41201F21202B78027B4E7
:100060000106E41201F2801EB4020774011201F2CB
:100070008014B4030774081201F2800AB4040774F0
:080080000F1201F2800080C3A1
:10018900C0E0C0001200EA505BF8B43009E4120183
:10019900F21202B7804EB42009E41201F21202B73A
:1001A9008042E8C394314011B40702800C500A24FC
:1001B900081201F21202B7802BE8C394614010B40F
:1001C9000702800B5009041201F21202B78015E8E8
:1001D900C39441400FB40702800A5008240F12014A
:0901E900F21202B7D000D0E022AE
:1002FE005389F0438901C28CC28DD2A9D2AF228517
:08030E000F8C85108AB2A432A5
:10008800C0E053890F43892053877F758DFD758B99
:10009800FD759850C299C298D28ED2ACD2AF75086D
:1000A80000750900750A00D0E022C0E0C000C00158
:1000B800C0D030981FC298E599F50BE50AB4400204
:1000C8008012E5082411F8E50BF60508E508543F09
:1000D800F508050A309902C299D0D0D001D000D0D5
:1000E800E032C000C001C2ACE50A6017E50924117E
:1000F800F8E6F90509E509543FF509150AD2ACE90E
:0C010800D38004D2ACE4C3D001D00022AC
:1001F200C0E0C000C082C083F8601FE8C2D7941676
:100202005018E890022993F50FE890023F93F510F9
:10021200850F8C85108AD28C8004C28CD2A4D083A4
:10022200D082D000D0E02200F2F3F5F5F6F7F8F92B
:10023200F9FAFAFBFBFCFCFCFDFDFDFDFE0042C1F0
:1002420017B7D1D1B621E18CD868E95B8FEF456C45
:03025200B4F42ED3
:10025500E5B0F4543CF8E50C600814601214603500
:10026500803EE8604BF50E750C01750D008041056B
:100275000DE50DB4FA3A750C02E8B50E33B4040376
:10028500740122B40803740222B41003740322B467
:10029500201E740422E87018750C03750D0080107B
:1002A500050DE50DB4FA09750C00E8700374052217
:0202B500E42241
:1002B700C0E0C082C0839002CA93F590D083D082F9
:1002C700D0E022FFFEFCF8FCFEFCF8F0E0C080C0A6
:0902D700E0F07E3C1800183C7EAA
:10011400C2A6C2B6F580D2A70000C2A77F0212020F
:10012400E022D2A6C2B6F580D2A70000C2A77F0102
:100134001202E0227438120114740C1201147406B1
:1001440012011474011201147F0A1202E022C0E0A9
:10015400C007C082C08374401201149001797F08E3
:10016400E493C007120126D007A3DFF4D083D08222
:10017400D007D0E0221B131B1B1B1B111F1B1B13BF
:050184001B1B1B1B11F9
:1002E000C0E0C005C006C007EF600A7D027EE5DE03
:0E02F000FEDDFADFF6D007D006D005D0E02202
:00000001FF
